:020000040800F2
:100000000050002029160008051000080B100008F9
:1000100011100008171000081D1000080000000053
:100020000000000000000000000000002310000895
:100030002F100008000000003B10000847100008C7
:100040007116000871160008711600087116000874
:100050007116000871160008711600087116000864
:100060007116000871160008711600087116000854
:100070007116000871160008711600087116000844
:100080007116000871160008711600087116000834
:100090007116000871160008711600087116000824
:1000A0007116000855100008711600087116000836
:1000B000691000087D10000871160008711600080C
:1000C00071160008711600087116000871160008F4
:1000D00071160008711600089110000871160008CA
:1000E0007116000871160008711600080000000063
:1000F0000000000000000000000000000000000000
:0C01000000000000000000005FF808F1A3
:10010C0010B5054C237833B9044B13B10448AFF345
:10011C0000800123237010BD90000020000000001F
:10012C00B847000808B5034B1BB103490348AFF3AC
:10013C00008008BD0000000094000020B8470008B3
:10014C0080B500AF244B4FF4FA721A60224B1B6837
:10015C001A462249224803F0AFFE322314222049CA
:10016C00204803F0ECF9204B1B68002B0AD11E4BE6
:10017C0001221A601D4B05221A601D4B1B681D4A7B
:10018C00136026E0184B1B68012B21D1174B1B6801
:10019C00072B16D0072B1CDC052B02D0062B08D006
:1001AC0017E0124B06221A60134B1B68114A13609E
:1001BC000FE00E4B07221A60104B1B680D4A1360A0
:1001CC0007E00A4B00221A60074B00221A6000E07D
:1001DC0000BF00BF80BD00BF1C000020D04700083E
:1001EC00FC000020A0010020EC000020F00000200A
:1001FC0010000020F4000020180000201400002043
:10020C0080B400AF084B1B68012B08D1074B1B684F
:10021C006433064A1360064B4FF4FA721A6000BF3F
:10022C00BD4680BC704700BFEC000020F4000020ED
:10023C001C00002080B400AF1E4B1B68012B35D175
:10024C001D4B1B68072B18D0072B1FDC052B02D06E
:10025C00062B09D01AE0194B1B68194A1360194B6D
:10026C004FF4FA721A6011E0144B1B68164A1360B3
:10027C00144B4FF4FA721A6008E0104B1B68134AC7
:10028C001360104B4FF4FA721A6000BF0E4B1B68D0
:10029C000F4A13600D4B1B680D4A53600A4B1B68C9
:1002AC000B4A9360094B1B68094AD36000BFBD46DB
:1002BC0080BC7047EC000020F0000020F40000200F
:1002CC00100000201C00002018000020140000204A
:1002DC000000002080B400AF034B01221A6000BF65
:1002EC00BD4680BC704700BFF800002080B582B0CE
:1002FC0000AF00237B60A1E0554A7B6852F82320B5
:10030C0054497B6841F82320534A7B6852F82320D8
:10031C004F497B6841F823207B68032B36D801A218
:10032C0052F823F041030008570300086D0300083E
:10033C00830300080221494801F0DCFC03461946FE
:10034C00454A7B6842F8231020E01021434801F015
:10035C00D1FC03461946404A7B6842F8231015E04D
:10036C0001213F4801F0C6FC034619463A4A7B6816
:10037C0042F823100AE00121384801F0BBFC034687
:10038C001946354A7B6842F8231000BF314A7B6816
:10039C0052F823202E497B6851F823309A4249D1D8
:1003AC002B4A7B6852F823202B497B6851F8233069
:1003BC009A423FD12B4A7B6852F8232026497B680E
:1003CC0051F823309A4235D0234A7B6852F82320C7
:1003DC0024497B6841F82320234B1B681A46234988
:1003EC00234803F069FD322314222149214803F0EC
:1003FC00A6F8194A7B6852F82330002B1AD17B6877
:10040C00032B18D801A252F823F000BF29040008CE
:10041C002F040008350400083B040008FFF790FE89
:10042C0009E0FFF7EDFE06E0FFF704FF03E0FFF73E
:10043C0051FF00E000BF7B6801337B607B68032BBE
:10044C007FF75AAF00BF00BF0837BD4680BD00BF65
:10045C00BC000020AC000020CC00002000080140B3
:10046C00000C0140DC0000201C000020E0470008CC
:10047C00FC000020A001002080B500AF01F0F4F8D2
:10048C0000F030F800F05CF900F06EF800F0B8F80D
:10049C0000F02CF90D4802F0F7F800210C4802F09E
:1004AC009DF900F099FA01F015F80A4B1B681A46F1
:1004BC0009490A4803F000FD322314220749084871
:1004CC0003F03DF800F04AFBFCE700BF10010020F0
:1004DC00580100201C000020F0470008FC00002000
:1004EC00A001002080B590B000AF07F118032822BE
:1004FC000021184603F0D8FC3B1D00221A605A60FC
:10050C009A60DA601A610223BB610123BB6210237B
:10051C00FB6202237B630023BB634FF46013FB631A
:10052C0007F11803184601F015FC0346002B01D007
:10053C0000F08CF90F237B600223BB600023FB606F
:10054C004FF480633B6100237B613B1D0221184605
:10055C0001F082FE0346002B01D000F077F900BFBA
:10056C004037BD4680BD000080B586B000AF07F1B6
:10057C00080300221A605A609A60DA603B46002237
:10058C001A605A601D4B4FF080421A601B4B4FF69D
:10059C00FF125A60194B00229A60184B0922DA603C
:1005AC00164B00221A61154B00229A61134802F077
:1005BC001BF80346002B01D000F048F94FF4805390
:1005CC00BB6007F1080319460C4802F06FFB0346A9
:1005DC00002B01D000F03AF900233B6000237B6034
:1005EC003B461946054802F0EDFE0346002B01D0B0
:1005FC0000F02CF900BF1837BD4680BD100100205B
:10060C0080B58EB000AF07F1280300221A605A6043
:10061C009A60DA6007F1200300221A605A603B1DD1
:10062C0000221A605A609A60DA601A615A619A6103
:10063C002C4B2D4A1A602B4B4FF6FF125A60294B4C
:10064C0000229A60274B0922DA60264B00221A619D
:10065C00244B00229A61234801F0C6FF0346002B6D
:10066C0001D000F0F3F84FF48053BB6207F128037C
:10067C0019461C4802F01AFB0346002B01D000F06F
:10068C00E5F8184802F052F80346002B01D000F0B0
:10069C00DDF800233B6200237B6207F1200319463F
:1006AC00104802F08FFE0346002B01D000F0CEF86C
:1006BC0060237B600023BB600023FB6000237B6115
:1006CC003B1D00221946074802F032FA0346002B64
:1006DC0001D000F0BBF8034800F098FB00BF38379E
:1006EC00BD4680BD580100200004004080B500AF1D
:1006FC00114B124A1A60104B4FF416525A600E4BA3
:10070C0000229A600C4B0022DA600B4B00221A611B
:10071C00094B0C225A61084B00229A61064B0022AD
:10072C00DA61054802F0BEFE0346002B01D000F052
:10073C008DF800BF80BD00BFA00100200044004028
:10074C0080B586B000AF07F1080300221A605A602A
:10075C009A60DA602E4B9B692D4A43F00403936137
:10076C002B4B9B6903F004037B607B68284B9B69D4
:10077C00274A43F008039361254B9B6903F0080358
:10078C003B603B6800224FF48761224801F0C9FAB4
:10079C0000224FF4A061204801F0C3FA1323BB6080
:1007AC000023FB6001233B6107F1080319461A483B
:1007BC0001F01CF90123BB600023FB6001233B61AA
:1007CC0007F108031946134801F010F94FF4876339
:1007DC00BB600123FB6000233B6102237B6107F1BB
:1007EC00080319460B4801F001F94FF4A063BB60F4
:1007FC000123FB6000233B6102237B6107F10803AB
:10080C001946054801F0F2F800BF1837BD4680BD07
:10081C0000100240000C01400008014080B582B07D
:10082C0000AF78607B681B68B3F1804F01D100F09A
:10083C00EDF87B681B68044A934201D100F02AFF53
:10084C0000BF0837BD4680BD002C014080B400AF0E
:10085C0072B600BFFEE7000080B500AF514B1B68BD
:10086C00012B40F09980504B1B68032B00F29780B2
:10087C0001A252F823F000BF95080008C90800082F
:10088C00E50800081909000801224FF48061474867
:10089C0001F047FA00224FF48071454801F041FA0B
:1008AC00444B1B681A464449444803F005FB322369
:1008BC0014224249424802F042FE70E03D4B1B6854
:1008CC001A4640493D4803F0F7FA322314223B49BB
:1008DC003B4802F034FE62E000224FF48061334862
:1008EC0001F01FFA01224FF48071314801F019FA1E
:1008FC00304B1B681A463449304803F0DDFA32237A
:10090C0014222E492E4802F01AFE48E000224FF421
:10091C008061264801F005FA01224FF480712448C9
:10092C0001F0FFF9234B1B681A462849234803F0B2
:10093C00C3FA322314222149214802F000FE244B31
:10094C001B680133224A1360214B1B68632B02D9AD
:10095C001F4B64221A601F4B1B681D4A12685A6396
:10096C00144B1B683C2B19DC00224FF480610F48A0
:10097C0001F0D7F900224FF480710D4801F0D1F944
:10098C00084B00221A60124B00221A60114B1B6894
:10099C000F4A12685A6301E000BF00E000BF00BFBD
:1009AC0080BD00BFF8000020F0000020000C0140CA
:1009BC00000801401C000020F8470008FC00002043
:1009CC00A001002004480008104800081C4800083A
:1009DC00E40100205801002080B582B000AF002354
:1009EC00FB7106E0FB79184600F0F8F8FB7901334F
:1009FC00FB71FB79272BF5D9034B00221A7000BF32
:100A0C000837BD4680BD00BF6804002080B483B0A9
:100A1C0000AF0023FB7142E0FB79264A1B01134413
:100A2C001B68002B38D0FB79224A1B01134404337A
:100A3C001B68002B23D1FB791E4A1B0113440C337A
:100A4C001A78FB790132D1B21A4A1B0113440C33C8
:100A5C000A461A70FB79174A1B01134408331B68AA
:100A6C00002B19D0FA79FB79124912010A44083289
:100A7C00126810491B010B4404331A600CE0FB791B
:100A8C000C4A1B01134404331A68FB79013A0949D7
:100A9C001B010B4404331A60FB790133FB71064BC9
:100AAC001B78FA799A42B7D300BF00BF0C37BD460A
:100ABC0080BC7047E80100206804002080B487B037
:100ACC0000AFF860B9607A600023FB7502E0FB7D33
:100ADC000133FB75FB7D1F4A1B0113441B68002B64
:100AEC0002D0FB7D272BF2D9FB7D282B01D12823AB
:100AFC002AE0FB7D174A1B011344FA681A60FB7D40
:100B0C00144A1B0113440433BA681A60FB7D114A62
:100B1C001B01134408337A681A60FB7D0D4A1B01D4
:100B2C0013440C3300221A70FB7D0B4A1178094ACE
:100B3C001B0113440D330A461A70074B1B78013303
:100B4C00DAB2054B1A70FB7D18461C37BD4680BCCB
:100B5C00704700BFE80100206804002080B582B017
:100B6C0000AF0023FB712BE0FB791A4A1B011344E5
:100B7C000C331B78002B20D0FB79164A1B01134435
:100B8C001B689847FB79134A1B0113440C331A78E2
:100B9C00FB79013AD1B20F4A1B0113440C330A46BC
:100BAC001A70FB790B4A1B01134408331B68002B8A
:100BBC0003D1FB79184600F011F8FB790133FB7176
:100BCC00054B1B78FA799A42CED300BF00BF083789
:100BDC00BD4680BDE80100206804002080B485B0CB
:100BEC0000AF0346FB71214B1B78FA799A4201D96D
:100BFC00FB7936E0FB791E4A1B01134404330022B7
:100C0C001A60FB791A4A1B01134400221A60FB7903
:100C1C00174A1B011344043300221A60FB79144A4F
:100C2C001B0113440C3300221A70FB790133FB7344
:100C3C0011E0FB7B0E4A1B0113440D331A78FB7B2E
:100C4C00013AD1B20A4A1B0113440D330A461A70F9
:100C5C00FB7B0133FB73054B1B78FA7B9A42E8D381
:100C6C00FB7918461437BD4680BC704768040020D9
:100C7C00E801002080B483B000AF7860054A7B683F
:100C8C001360054B00221A6000BF0C37BD4680BCB8
:100C9C00704700BF700400206C04002080B483B047
:100CAC0000AF7860054A7B681360054B00221A6020
:100CBC0000BF0C37BD4680BC704700BF78040020D5
:100CCC007404002080B500AF134B1B68002B0EDDA5
:100CDC00114B1B68013B104A13600F4B1B68002B18
:100CEC0005D10E4B01221A603220FFF7C3FF0C4BCB
:100CFC001B68002B0EDD0A4B1B68013B084A136076
:100D0C00074B1B68002B05D1064B01221A600120F2
:100D1C00FFF7C4FF00BF80BD700400206C040020EE
:100D2C00780400207404002080B485B000AF154B0B
:100D3C009B69144A43F001039361124B9B6903F0C6
:100D4C000103BB60BB680F4BDB690E4A43F0805359
:100D5C00D3610C4BDB6903F080537B607B680A4BDF
:100D6C005B68FB60FB6823F0E063FB60FB6843F0AF
:100D7C000073FB60044AFB68536000BF1437BD4628
:100D8C0080BC7047001002400000014080B584B068
:100D9C0000AF78607B681B68B3F1804F14D1194B9E
:100DAC00DB69184A43F00103D361164BDB6903F08E
:100DBC000103FB60FB68002200211C2000F03BFDBE
:100DCC001C2000F054FD18E07B681B680E4A93420F
:100DDC0013D10C4BDB690B4A43F00203D361094B73
:100DEC00DB6903F00203BB60BB68002200211D20FD
:100DFC0000F021FD1D2000F03AFD00BF1037BD466C
:100E0C0080BD00BF001002400004004080B588B0D7
:100E1C0000AF786007F1100300221A605A609A60E4
:100E2C00DA607B681B680F4A934217D10E4B9B69A3
:100E3C000D4A43F0040393610B4B9B6903F00403CD
:100E4C00FB60FB6840233B6102237B610223FB6157
:100E5C0007F110031946054800F0C8FD00BF203704
:100E6C00BD4680BD00040040001002400008014057
:100E7C0080B588B000AF786007F1100300221A60CB
:100E8C005A609A60DA607B681B681F4A934237D1BC
:100E9C001E4BDB691D4A43F40033D3611B4BDB69EA
:100EAC0003F40033FB60FB68184B9B69174A43F053
:100EBC0004039361154B9B6903F00403BB60BB688F
:100ECC0004233B6102237B610323FB6107F11003C5
:100EDC0019460F4800F08AFD08233B6100237B6113
:100EEC000023BB6107F110031946094800F07EFD91
:100EFC0000220021262000F09EFC262000F0B7FCEA
:100F0C0000BF2037BD4680BD0044004000100240A9
:100F1C000008014080B58CB000AF78600023BB6244
:100F2C0000237B62002387F82F302E4B9B692D4AC0
:100F3C0043F4006393612B4B9B6903F40063BB6028
:100F4C00BB6807F10C0207F110031146184601F0BB
:100F5C00FDFA01F0E7FAB862BB6A234AA2FB03234D
:100F6C009B0C013B7B62214B214A1A601F4B40F2C8
:100F7C00E732DA601D4A7B6A53601C4B00221A610F
:100F8C001A4B00229A60194B00229A61174801F003
:100F9C002BFB034687F82F3097F82F30002B1BD1F3
:100FAC00124801F071FB034687F82F3097F82F3069
:100FBC00002B11D1192000F05AFC7B680F2B08D89C
:100FCC0000227968192000F036FC0A4A7B6813600D
:100FDC0002E0012387F82F3097F82F30184630376E
:100FEC00BD4680BD0010024083DE1B437C04002004
:100FFC00002C01402400002080B400AFFEE780B438
:10100C0000AFFEE780B400AFFEE780B400AFFEE7B0
:10101C0080B400AFFEE780B400AF00BFBD4680BC1B
:10102C00704780B400AF00BFBD4680BC704780B431
:10103C0000AF00BFBD4680BC704780B400AF00BF9E
:10104C00BD4680BC7047000080B500AF024801F07F
:10105C0067FC00BF80BD00BF7C04002080B500AFE2
:10106C00024801F05DFC00BF80BD00BF10010020F4
:10107C0080B500AF024801F053FC00BF80BD00BF3B
:10108C005801002080B500AF024802F0EBFA00BF17
:10109C0080BD00BFA001002080B586B000AF786095
:1010AC00144A154BD31A7B617B693B61134B1B684C
:1010BC00002B02D1114B124A1A60104B1A687B6834
:1010CC0013443A699A4207D202F0C4FE03460C223A
:1010DC001A604FF0FF3309E0084B1B68FB60074BAD
:1010EC001A687B681344054A1360FB681846183766
:1010FC00BD4680BD0050002000040000C404002048
:10110C00E004002080B400AF00BFBD4680BC704737
:10111C0080B500AF874B1B68002B40F00781864BD6
:10112C001B68032B00F2038101A252F823F000BFCD
:10113C004D110008CB11000843120008C112000821
:10114C007E4B1A687E4B1B6813447E4A82FB03124B
:10115C005211DB17D31A1A467B497C4802F0ACFEBD
:10116C003223142279497A4802F0E9F9734B1B684F
:10117C00744A82FB03125211DB17D31A1A467549B3
:10118C00724802F099FE322314227049704802F022
:10119C00D6F901224FF480616F4800F0C2FD0022A5
:1011AC0008216E4800F0BDFD002220216B4800F0A4
:1011BC00B8FD01221021694800F0B3FDB7E05F4B88
:1011CC001B68604A82FB03125211DB17D31A1A46B2
:1011DC005D495E4802F070FE322314225B495C4884
:1011EC0002F0ADF9554B1B68564A82FB03125211A3
:1011FC00DB17D31A1A465A49544802F05DFE3223C3
:10120C0014225249524802F09AF901224FF480619B
:10121C00514800F086FD00220821504800F081FD65
:10122C00012220214D4800F07CFD012210214B4869
:10123C0000F077FD7BE0414B1B68424A82FB0312B6
:10124C005211DB17D31A1A464649404802F034FEB5
:10125C00322314223D493E4802F071F9374B1A688B
:10126C00414B1B681344374A82FB03125211DB17A4
:10127C00D31A1A463D49354802F01EFE3223142279
:10128C003249334802F05BF900224FF48061324856
:10129C0000F047FD01220821304800F042FD0122F8
:1012AC0020212E4800F03DFD002210212B4800F09B
:1012BC0038FD3CE0214B1B68224A82FB0312521181
:1012CC00DB17D31A1A462A49204802F0F5FD3223BF
:1012DC0014221E491E4802F032F9184B1B68194A99
:1012EC0082FB03125211DB17D31A1A461F491748F7
:1012FC0002F0E2FD322314221449154802F01FF9C2
:10130C0001224FF48061144800F00BFD01220821EA
:10131C00124800F006FD01222021104800F001FDCA
:10132C00002210210D4800F0FCFC00E000BF00BFC3
:10133C0080BD00BFEC000020F00000201C0000204D
:10134C00180000201F85EB5128480008FC000020E5
:10135C00A00100203C48000800080140000C01409E
:10136C005448000868480008140000208048000811
:10137C009448000880B500AF474B1B68012B40F028
:10138C008780464B1B68072B59D0072B00F38180B5
:10139C00052B02D0062B29D07BE0414B1B68414A20
:1013AC0082FB03125211DB17D31A1A463E493F48EF
:1013BC0002F082FD322314223C493D4802F0BFF872
:1013CC0001224FF480613B4800F0ABFC0022082165
:1013DC00394800F0A6FC01222021374800F0A1FC7E
:1013EC0000221021344800F09CFC52E02C4B1B686E
:1013FC002C4A82FB03125211DB17D31A1A462F49BF
:10140C002A4802F059FD322314222849284802F0B8
:10141C0096F800224FF48061264800F082FC0122ED
:10142C000821254800F07DFC00222021224800F0F4
:10143C0078FC01221021204800F073FC29E0184BA5
:10144C001B68184A82FB03125211DB17D31A1A4677
:10145C001B49164802F030FD32231422134914485C
:10146C0002F06DF801224FF48061124800F059FC33
:10147C0001220821104800F054FC012220210E48C2
:10148C0000F04FFC012210210B4800F04AFC00E058
:10149C0000BF00BF80BD00BFEC000020F0000020AA
:1014AC00F40000201F85EB51A8480008FC00002028
:1014BC00A001002000080140000C0140B4480008C5
:1014CC00C448000880B500AFFFF722FEFFF752FFBB
:1014DC0000BF80BD80B586B000AF134B7B61134B52
:1014EC003B61134BFB60134BBB60134B7B600122C6
:1014FC000121B868FFF7E2FA012201217869FFF7B0
:10150C00DDFA0A2201213869FFF7D8FA6422022198
:10151C00F868FFF7D3FA322201217868FFF7CEFA88
:10152C0000BF1837BD4680BDF902000849150008F8
:10153C00D1140008D10C00086508000880B400AF75
:10154C00324B1B680A3B314A1360314B1B68002B32
:10155C003ED1304B1B68032B54D801A252F823F018
:10156C007D15000895150008AD150008C515000877
:10157C00264B1B68002B3ED1274B5B68234A13601C
:10158C00244B01221A6036E0204B1B68002B34D10F
:10159C00214B9B681D4A13601E4B02221A602CE0E3
:1015AC001A4B1B68002B2AD11B4BDB68174A1360A4
:1015BC00184B03221A6022E0144B1B68002B20D11D
:1015CC00154B1B68114A1360124B00221A6018E06D
:1015DC000F4B1B68012B15D10C4B1B68002B11D129
:1015EC000D4B1B68094A1360094B00221A60094B0A
:1015FC0000221A6006E000BF04E000BF02E000BF5A
:10160C0000E000BF00BFBD4680BC70471C0000203E
:10161C00EC000020F0000020000000200C480D49D8
:10162C000D4A002302E0D458C4500433C4188C4231
:10163C00F9D30A4A0A4C002301E013600432A24297
:10164C00FBD3FFF75FFD02F00BFCFEF715FF7047B5
:10165C000000002090000020384900089000002075
:10166C00DC040020FEE7000080B500AF084B1B68CF
:10167C00074A43F010031360032000F0D1F80F2049
:10168C00FFF748FCFFF750FB0023184680BD00BF56
:10169C000020024080B400AF054B1B781A46054B66
:1016AC001B681344034A136000BFBD4680BC7047DF
:1016BC0028000020C804002080B400AF024B1B6837
:1016CC001846BD4680BC7047C804002080B485B065
:1016DC0000AF78607B6803F00703FB600C4BDB68A2
:1016EC00BB60BA684FF6FF031340BB60FB681A027D
:1016FC00BB68134343F0BF6343F40033BB60044A3D
:10170C00BB68D36000BF1437BD4680BC704700BFB8
:10171C0000ED00E080B400AF044BDB681B0A03F063
:10172C0007031846BD4680BC704700BF00ED00E0C3
:10173C0080B483B000AF0346FB7197F90730002BE0
:10174C000BDBFB7903F01F02064997F907305B09A5
:10175C00012000FA02F241F8232000BF0C37BD46ED
:10176C0080BC704700E100E080B483B000AF03465A
:10177C003960FB7197F90730002B0ADB3B68DAB252
:10178C000C4997F907301201D2B20B4483F80023AD
:10179C000AE03B68DAB20849FB7903F00F03043B1B
:1017AC001201D2B20B441A7600BF0C37BD4680BC76
:1017BC00704700BF00E100E000ED00E080B489B0AC
:1017CC0000AFF860B9607A60FB6803F00703FB6157
:1017DC00FB69C3F10703042B28BF0423BB61FB691E
:1017EC000433062B02D9FB69033B00E000237B6129
:1017FC004FF0FF32BB6902FA03F3DA43BB681A40BD
:10180C007B699A404FF0FF317B6901FA03F3D943AE
:10181C007B680B40134318462437BD4680BC704789
:10182C0080B582B000AF78607868FFF74FFF00BFDB
:10183C000837BD4680BD80B586B000AF0346B960A1
:10184C007A60FB7300237B61FFF764FF78617A6831
:10185C00B9687869FFF7B2FF024697F90F30114665
:10186C001846FFF781FF00BF1837BD4680BD80B515
:10187C0082B000AF0346FB7197F907301846FFF7AB
:10188C0057FF00BF0837BD4680BD80B485B000AFA0
:10189C0078600023FB737B6893F82130022B08D00F
:1018AC007B6804229A637B68002283F82020012342
:1018BC0020E07B681B681A687B681B6822F00E02AC
:1018CC001A607B681B681A687B681B6822F001022F
:1018DC001A607B681A6C7B68DB6B012101FA02F2DF
:1018EC005A607B68012283F821207B68002283F8F0
:1018FC002020FB7B18461437BD4680BC7047000087
:10190C0080B584B000AF78600023FB737B6893F8DC
:10191C002130022B05D07B6804229A630123FB73D0
:10192C0051E07B681B681A687B681B6822F00E020A
:10193C001A607B681B681A687B681B6822F00102BE
:10194C001A607B681B68224A934229D07B681B680B
:10195C00204A934222D07B681B681F4A93421AD0BC
:10196C007B681B681D4A934212D07B681B681C4A1B
:10197C0093420AD07B681B681A4A934202D14FF4F7
:10198C0080130EE04FF080730BE04FF4803308E0CF
:10199C004FF4805305E04FF4807302E0102300E015
:1019AC000123114A53607B68012283F821207B6854
:1019BC00002283F820207B685B6B002B03D07B68B4
:1019CC005B6B78689847FB7B18461037BD4680BD2B
:1019DC00080002401C00024030000240440002405B
:1019EC00580002406C0002400000024080B48BB0F2
:1019FC0000AF7860396000237B6200233B6269E1B1
:101A0C0001227B6A02FA03F3FB613B681B68FA69EB
:101A1C001340BB61BA69FB699A4240F058813B683C
:101A2C005B689A4A93425ED0984A934275D8984A1A
:101A3C00934258D0964A93426FD8964A934252D0CA
:101A4C00944A934269D8944A93424CD0924A934216
:101A5C0063D8924A934246D0904A93425DD8122B57
:101A6C002AD8122B59D801A252F823F0F31A0008E5
:101A7C00CD1A0008DF1A0008211B0008271B0008DC
:101A8C00271B0008271B0008271B0008271B000822
:101A9C00271B0008271B0008271B0008271B000812
:101AAC00271B0008271B0008271B0008271B000802
:101ABC00D51A0008E91A0008794A934213D02CE091
:101ACC003B68DB683B6229E03B68DB6804333B62C4
:101ADC0024E03B68DB6808333B621FE03B68DB6853
:101AEC000C333B621AE03B689B68002B02D1042349
:101AFC003B6213E03B689B68012B05D108233B62DA
:101B0C007B68FA691A6109E008233B627B68FA6911
:101B1C005A6103E000233B6200E000BFBB69FF2B6E
:101B2C0001D87B6801E07B6804337B61BB69FF2BC8
:101B3C0002D87B6A9B0002E07B6A083B9B003B61FE
:101B4C007B691A680F213B6901FA03F3DB431A40E6
:101B5C00396A3B6901FA03F31A437B691A603B68E3
:101B6C005B6803F08053002B00F0B1804D4B9B69F8
:101B7C004C4A43F0010393614A4B9B6903F0010308
:101B8C00BB60BB68484A7B6A9B08023352F823301F
:101B9C00FB607B6A03F003039B000F2202FA03F342
:101BAC00DB43FA681340FB607B68404A934213D0D6
:101BBC007B683F4A93420DD07B683E4A934207D0E4
:101BCC007B683D4A934201D1032306E0042304E0E1
:101BDC00022302E0012300E000237A6A02F00302F0
:101BEC0092009340FA681343FB602F497B6A9B0871
:101BFC000233FA6841F823203B685B6803F48033B6
:101C0C00002B06D02D4B1A682C49BB6913430B6073
:101C1C0006E02A4B1A68BB69DB43284913400B606A
:101C2C003B685B6803F40033002B06D0234B5A68E7
:101C3C002249BB6913434B6006E0204B5A68BB69D1
:101C4C00DB431E4913404B603B685B6803F4801315
:101C5C00002B06D0194B9A681849BB6913438B604B
:101C6C0006E0164B9A68BB69DB43144913408B6042
:101C7C003B685B6803F40013002B21D00F4BDA6830
:101C8C000E49BB691343CB6021E000BF000032104A
:101C9C000000311000002210000021100000121072
:101CAC00000011100010024000000140000801402B
:101CBC00000C0140001001400014014000040140E0
:101CCC000B4BDA68BB69DB4309491340CB607B6A79
:101CDC0001337B623B681A687B6A22FA03F3002BA0
:101CEC007FF48EAE00BF00BF2C37BD4680BC704762
:101CFC000004014080B485B000AF78600B467B8057
:101D0C007B689A687B881340002B02D00123FB73FD
:101D1C0001E00023FB73FB7B18461437BD4680BCE7
:101D2C00704780B483B000AF78600B467B8013465D
:101D3C007B707B78002B03D07A887B681A6103E078
:101D4C007B881A047B681A6100BF0C37BD4680BCC7
:101D5C007047000080B586B000AF78607B68002BC0
:101D6C0001D1012372E27B681B6803F00103002B95
:101D7C0000F08780924B5B6803F00C03042B0CD0B3
:101D8C008F4B5B6803F00C03082B12D18C4B5B68F8
:101D9C0003F48033B3F5803F0BD1894B1B6803F4FC
:101DAC000033002B6CD07B685B68002B68D101235F
:101DBC004CE27B685B68B3F5803F06D1804B1B68B7
:101DCC007F4A43F4803313602EE07B685B68002B02
:101DDC000CD17B4B1B687A4A23F480331360784B0D
:101DEC001B68774A23F4802313601DE07B685B68D3
:101DFC00B3F5A02F0CD1724B1B68714A43F48023AE
:101E0C0013606F4B1B686E4A43F4803313600BE016
:101E1C006B4B1B686A4A23F480331360684B1B6856
:101E2C00674A23F4802313607B685B68002B13D014
:101E3C00FFF742FC386108E0FFF73EFC02463B69C5
:101E4C00D31A642B01D9032300E25D4B1B6803F406
:101E5C000033002BF0D014E0FFF72EFC386108E0C3
:101E6C00FFF72AFC02463B69D31A642B01D90323E2
:101E7C00ECE1534B1B6803F40033002BF0D100E072
:101E8C0000BF7B681B6803F00203002B63D04C4B34
:101E9C005B6803F00C03002B0BD0494B5B6803F021
:101EAC000C03082B1CD1464B5B6803F48033002BCE
:101EBC0016D1434B1B6803F00203002B05D07B6843
:101ECC001B69012B01D00123C0E13D4B1B6823F0A2
:101EDC00F8027B685B69DB00394913430B603AE01D
:101EEC007B681B69002B20D0364B01221A60FFF750
:101EFC00E3FB386108E0FFF7DFFB02463B69D31ACE
:101F0C00022B01D90323A1E12D4B1B6803F0020323
:101F1C00002BF0D02A4B1B6823F0F8027B685B691E
:101F2C00DB00274913430B6015E0264B00221A6097
:101F3C00FFF7C2FB386108E0FFF7BEFB02463B69C6
:101F4C00D31A022B01D9032380E11D4B1B6803F02C
:101F5C000203002BF0D17B681B6803F00803002BF5
:101F6C003AD07B689B69002B19D0174B01221A6061
:101F7C00FFF7A2FB386108E0FFF79EFB02463B69C6
:101F8C00D31A022B01D9032360E10D4B5B6A03F0DA
:101F9C000203002BF0D0012000F008FB1CE00A4BE0
:101FAC0000221A60FFF788FB38610FE0FFF784FB13
:101FBC0002463B69D31A022B08D9032346E100BF22
:101FCC00001002400000424280044242924B5B6A85
:101FDC0003F00203002BE9D17B681B6803F00403B8
:101FEC00002B00F0A6800023FB758B4BDB6903F004
:101FFC008053002B0DD1884BDB69874A43F080530B
:10200C00D361854BDB6903F08053BB60BB68012354
:10201C00FB75824B1B6803F48073002B18D17F4B2C
:10202C001B687E4A43F480731360FFF745FB3861ED
:10203C0008E0FFF741FB02463B69D31A642B01D938
:10204C00032303E1754B1B6803F48073002BF0D062
:10205C007B68DB68012B06D16F4B1B6A6E4A43F021
:10206C00010313622DE07B68DB68002B0CD16A4BFB
:10207C001B6A694A23F001031362674B1B6A664AA9
:10208C0023F0040313621CE07B68DB68052B0CD186
:10209C00614B1B6A604A43F0040313625E4B1B6A7C
:1020AC005D4A43F0010313620BE05B4B1B6A5A4A17
:1020BC0023F001031362584B1B6A574A23F00403A5
:1020CC0013627B68DB68002B15D0FFF7F5FA3861DB
:1020DC000AE0FFF7F1FA02463B69D31A41F2883263
:1020EC00934201D90323B1E04B4B1B6A03F002036B
:1020FC00002BEED014E0FFF7DFFA38610AE0FFF7AF
:10210C00DBFA02463B69D31A41F28832934201D979
:10211C0003239BE0404B1B6A03F00203002BEED120
:10212C00FB7D012B05D13C4BDB693B4A23F08053F3
:10213C00D3617B68DB69002B00F08780364B5B68D2
:10214C0003F00C03082B61D07B68DB69022B46D1B2
:10215C00334B00221A60FFF7AFFA386108E0FFF743
:10216C00ABFA02463B69D31A022B01D903236DE06B
:10217C00294B1B6803F00073002BF0D17B681B6AA2
:10218C00B3F5803F08D1244B5B6823F400327B68A5
:10219C009B68214913434B601F4B5B6823F47412FB
:1021AC007B68196A7B685B6A0B431B4913434B6062
:1021BC001B4B01221A60FFF77FFA386108E0FFF72A
:1021CC007BFA02463B69D31A022B01D903233DE06B
:1021DC00114B1B6803F00073002BF0D035E0104B53
:1021EC0000221A60FFF768FA386108E0FFF764FA1A
:1021FC0002463B69D31A022B01D9032326E0064B76
:10220C001B6803F00073002BF0D11EE07B68DB69C8
:10221C00012B07D1012319E000100240007000408F
:10222C00600042420B4B5B68FB60FB6803F480323E
:10223C007B681B6A9A4206D1FB6803F470127B68B8
:10224C005B6A9A4201D0012300E00023184618373C
:10225C00BD4680BD0010024080B584B000AF7860F0
:10226C0039607B68002B01D10123D0E06A4B1B68DD
:10227C0003F007033A689A4210D9674B1B6823F0A6
:10228C00070265493B6813430B60634B1B6803F003
:10229C0007033A689A4201D00123B8E07B681B68B7
:1022AC0003F00203002B20D07B681B6803F00403AF
:1022BC00002B05D0594B5B68584A43F4E0635360DC
:1022CC007B681B6803F00803002B05D0534B5B683D
:1022DC00524A43F460535360504B5B6823F0F00256
:1022EC007B689B684D4913434B607B681B6803F00C
:1022FC000103002B40D07B685B68012B07D1474B57
:10230C001B6803F40033002B15D101237FE07B689D
:10231C005B68022B07D1414B1B6803F00073002B49
:10232C0009D1012373E03D4B1B6803F00203002B22
:10233C0001D101236BE0394B5B6823F003027B680E
:10234C005B68364913434B60FFF7B6F9F8600AE057
:10235C00FFF7B2F90246FB68D31A41F28832934276
:10236C0001D9032353E02D4B5B6803F00C027B680F
:10237C005B689B009A42EBD1274B1B6803F0070369
:10238C003A689A4210D2244B1B6823F00702224968
:10239C003B6813430B60204B1B6803F007033A6840
:1023AC009A4201D0012332E07B681B6803F00403DE
:1023BC00002B08D0194B5B6823F4E0627B68DB6868
:1023CC00164913434B607B681B6803F00803002B12
:1023DC0009D0124B5B6823F460527B681B69DB00ED
:1023EC000E4913434B6000F021F802460B4B5B681F
:1023FC001B0903F00F030A49CB5C22FA03F3094AC9
:10240C001360094B1B681846FEF784FD0023184621
:10241C001037BD4680BD00BF0020024000100240B6
:10242C00E4480008200000202400002090B48AB06A
:10243C0000AF294B3C1D0FCB84E80F0040F2012369
:10244C003B800023FB610023BB6100237B620023E4
:10245C007B6100233B62214B5B68FB61FB6903F0F2
:10246C000C03042B02D0082B03D02BE01C4B3B623B
:10247C002BE0FB699B0C03F00F0328333B4413F850
:10248C00243C7B61FB6903F48033002B12D0134B8B
:10249C005B685B0C03F0010328333B4413F8283CC6
:1024AC00BB617B690E4A03FB02F2BB69B2FBF3F31F
:1024BC007B6204E07B690B4A02FB03F37B627B6A61
:1024CC003B6202E0064B3B6200BF3B6A1846283772
:1024DC00BD4690BC704700BFD448000800100240B5
:1024EC0000127A0000093D0080B400AF024B1B685B
:1024FC001846BD4680BC70472000002080B500AF58
:10250C00FFF7F2FF0246054B5B681B0A03F007035B
:10251C000349CB5C22FA03F3184680BD001002403D
:10252C00F448000880B500AFFFF7DEFF0246054B0C
:10253C005B68DB0A03F007030349CB5C22FA03F365
:10254C00184680BD00100240F448000880B483B0E7
:10255C0000AF786039607B680F221A60114B5B68A2
:10256C0003F003027B685A600E4B5B6803F0F002C9
:10257C007B689A600B4B5B6803F4E0627B68DA6003
:10258C00084B5B68DB0803F4E0627B681A61064B5E
:10259C001B6803F007023B681A6000BF0C37BD468E
:1025AC0080BC7047001002400020024080B485B00F
:1025BC0000AF78600A4B1B680A4AA2FB03235B0A34
:1025CC007A6802FB03F3FB6000BFFB685A1EFA60DB
:1025DC00002BF9D100BF00BF1437BD4680BC70473B
:1025EC0020000020D34D621080B582B000AF78601F
:1025FC007B68002B01D1012341E07B6893F83D30CF
:10260C00DBB2002B06D17B68002283F83C20786873
:10261C00FEF7BCFB7B68022283F83D207B681A68BE
:10262C007B6804331946104600F028FC7B680122B5
:10263C0083F846207B68012283F83E207B680122C8
:10264C0083F83F207B68012283F840207B680122BD
:10265C0083F841207B68012283F842207B680122A9
:10266C0083F843207B68012283F844207B68012295
:10267C0083F845207B68012283F83D20002318460F
:10268C000837BD4680BD000080B485B000AF7860CF
:10269C007B6893F83D30DBB2012B01D001233AE08B
:1026AC007B68022283F83D207B681B68DA687B68B4
:1026BC001B6842F00102DA607B681B68184A93427F
:1026CC000ED07B681B68B3F1804F09D07B681B6808
:1026DC00144A934204D07B681B68134A934211D16D
:1026EC007B681B689B6803F00703FB60FB68062B89
:1026FC0010D07B681B681A687B681B6842F001026B
:10270C001A6007E07B681B681A687B681B6842F0DC
:10271C0001021A60002318461437BD4680BC70476E
:10272C00002C0140000400400008004080B582B03D
:10273C0000AF78607B68002B01D1012341E07B68FE
:10274C0093F83D30DBB2002B06D17B68002283F876
:10275C003C20786800F039F87B68022283F83D2031
:10276C007B681A687B6804331946104600F086FBB8
:10277C007B68012283F846207B68012283F83E2087
:10278C007B68012283F83F207B68012283F840207C
:10279C007B68012283F841207B68012283F8422068
:1027AC007B68012283F843207B68012283F8442054
:1027BC007B68012283F845207B68012283F83D2049
:1027CC00002318460837BD4680BD80B483B000AFE7
:1027DC00786000BF0C37BD4680BC704780B584B0B4
:1027EC0000AF786039603B68002B09D17B6893F8A7
:1027FC003E30DBB2012B14BF01230023DBB222E0FD
:10280C003B68042B09D17B6893F83F30DBB2012B7A
:10281C0014BF01230023DBB215E03B68082B09D160
:10282C007B6893F84030DBB2012B14BF01230023EB
:10283C00DBB208E07B6893F84130DBB2012B14BFAC
:10284C0001230023DBB2002B01D001235EE03B68A7
:10285C00002B04D17B68022283F83E2013E03B68F6
:10286C00042B04D17B68022283F83F200BE03B68E9
:10287C00082B04D17B68022283F8402003E07B689C
:10288C00022283F841207B681B68012239681846B4
:10289C0000F074FD7B681B681E4A934207D17B686D
:1028AC001B685A6C7B681B6842F400425A647B6854
:1028BC001B68184A93420ED07B681B68B3F1804F9B
:1028CC0009D07B681B68144A934204D07B681B6850
:1028DC00124A934211D17B681B689B6803F0070373
:1028EC00FB60FB68062B10D07B681B681A687B6842
:1028FC001B6842F001021A6007E07B681B681A68CB
:10290C007B681B6842F001021A60002318461037DE
:10291C00BD4680BD002C0140000400400008004072
:10292C0080B582B000AF78607B681B681B6903F0D0
:10293C000203022B22D17B681B68DB6803F00203C5
:10294C00022B1BD17B681B686FF002021A617B683B
:10295C0001221A777B681B689B6903F00303002B29
:10296C0003D0786800F06FFA05E0786800F062FA3E
:10297C00786800F071FA7B6800221A777B681B6814
:10298C001B6903F00403042B22D17B681B68DB68F2
:10299C0003F00403042B1BD17B681B686FF004024B
:1029AC001A617B6802221A777B681B689B6903F4A7
:1029BC004073002B03D0786800F045FA05E0786886
:1029CC0000F038FA786800F047FA7B6800221A7732
:1029DC007B681B681B6903F00803082B22D17B68FA
:1029EC001B68DB6803F00803082B1BD17B681B6892
:1029FC006FF008021A617B6804221A777B681B68E7
:102A0C00DB6903F00303002B03D0786800F01BFA9A
:102A1C0005E0786800F00EFA786800F01DFA7B6823
:102A2C0000221A777B681B681B6903F01003102BBC
:102A3C0022D17B681B68DB6803F01003102B1BD1C1
:102A4C007B681B686FF010021A617B6808221A778A
:102A5C007B681B68DB6903F44073002B03D0786838
:102A6C0000F0F1F905E0786800F0E4F9786800F01E
:102A7C00F3F97B6800221A777B681B681B6903F0EB
:102A8C000103012B0ED17B681B68DB6803F001038B
:102A9C00012B07D17B681B686FF001021A61786803
:102AAC00FDF7BCFE7B681B681B6903F08003802B61
:102ABC000ED17B681B68DB6803F08003802B07D189
:102ACC007B681B686FF080021A61786800F0E1FC8B
:102ADC007B681B681B6903F04003402B0ED17B689D
:102AEC001B68DB6803F04003402B07D17B681B6835
:102AFC006FF040021A61786800F0B7F97B681B68C8
:102B0C001B6903F02003202B0ED17B681B68DB684C
:102B1C0003F02003202B07D17B681B686FF0200289
:102B2C001A61786800F0ACFC00BF0837BD4680BD68
:102B3C0080B584B000AFF860B9607A60FB6893F838
:102B4C003C30012B01D10223ACE0FB68012283F85D
:102B5C003C207B680C2B00F29F8001A252F823F0E2
:102B6C00A12B0008A52C0008A52C0008A52C0008FA
:102B7C00E12B0008A52C0008A52C0008A52C0008AA
:102B8C00232C0008A52C0008A52C0008A52C000857
:102B9C00632C0008FB681B68B968184600F0D0F974
:102BAC00FB681B689A69FB681B6842F008029A6113
:102BBC00FB681B689A69FB681B6822F004029A6127
:102BCC00FB681B689969BB681A69FB681B680A4338
:102BDC009A6162E0FB681B68B968184600F016FA47
:102BEC00FB681B689A69FB681B6842F400629A6177
:102BFC00FB681B689A69FB681B6822F480629A6107
:102C0C00FB681B689969BB681B691A02FB681B6827
:102C1C000A439A6141E0FB681B68B968184600F0EA
:102C2C005FFAFB681B68DA69FB681B6842F00802F4
:102C3C00DA61FB681B68DA69FB681B6822F0040226
:102C4C00DA61FB681B68D969BB681A69FB681B6889
:102C5C000A43DA6121E0FB681B68B968184600F08A
:102C6C00A9FAFB681B68DA69FB681B6842F400620E
:102C7C00DA61FB681B68DA69FB681B6822F4806206
:102C8C00DA61FB681B68D969BB681B691A02FB68AF
:102C9C001B680A43DA6100E000BFFB68002283F87E
:102CAC003C20002318461037BD4680BD80B584B04B
:102CBC0000AF786039607B6893F83C30012B01D110
:102CCC000223B3E07B68012283F83C207B6802225C
:102CDC0083F83D207B681B689B68FB60FB6823F0D6
:102CEC007703FB60FB6823F47F43FB607B681B6806
:102CFC00FA689A603B681B68B3F5005F3ED0B3F589
:102D0C00005F00F28780B3F5805F00F08580B3F53B
:102D1C00805F7FD8702B1AD0702B7BD8602B50D053
:102D2C00602B77D8502B3CD0502B73D8402B58D0DD
:102D3C00402B6FD8302B64D0302B6BD8202B60D02D
:102D4C00202B67D8002B5CD0102B5AD062E07B680C
:102D5C0018683B6899683B685A683B68DB6800F008
:102D6C00EEFA7B681B689B68FB60FB6843F077039B
:102D7C00FB607B681B68FA689A604EE07B68186899
:102D8C003B6899683B685A683B68DB6800F0D7FA87
:102D9C007B681B689A687B681B6842F480429A6067
:102DAC003BE07B6818683B6859683B68DB681A46EF
:102DBC0000F04EFA7B681B685021184600F0A5FA0B
:102DCC002BE07B6818683B6859683B68DB681A46DF
:102DDC0000F06CFA7B681B686021184600F095FACD
:102DEC001BE07B6818683B6859683B68DB681A46CF
:102DFC0000F02EFA7B681B684021184600F085FA1B
:102E0C000BE07B681A683B681B681946104600F09B
:102E1C007CFA02E000BF00E000BF7B68012283F86F
:102E2C003D207B68002283F83C2000231846103795
:102E3C00BD4680BD80B483B000AF786000BF0C3756
:102E4C00BD4680BC704780B483B000AF786000BFD3
:102E5C000C37BD4680BC704780B483B000AF78603F
:102E6C0000BF0C37BD4680BC704780B483B000AF48
:102E7C00786000BF0C37BD4680BC704780B485B00D
:102E8C0000AF786039607B681B68FB607B68294AFF
:102E9C0093420BD07B68B3F1804F07D07B68264AF6
:102EAC00934203D07B68254A934208D1FB6823F0F8
:102EBC007003FB603B685B68FA681343FB607B68DC
:102ECC001C4A93420BD07B68B3F1804F07D07B68D0
:102EDC00194A934203D07B68184A934208D1FB6885
:102EEC0023F44073FB603B68DB68FA681343FB60B8
:102EFC00FB6823F080023B685B691343FB607B68D3
:102F0C00FA681A603B689A687B68DA623B681A68F0
:102F1C007B689A627B68074A934203D13B681A69C3
:102F2C007B681A637B6801225A6100BF1437BD4667
:102F3C0080BC7047002C0140000400400008004099
:102F4C0080B487B000AF786039607B681B6A23F06F
:102F5C0001027B681A627B681B6A7B617B685B6819
:102F6C003B617B689B69FB60FB6823F07003FB6033
:102F7C00FB6823F00303FB603B681B68FA68134390
:102F8C00FB607B6923F002037B613B689B687A6979
:102F9C0013437B617B681C4A93420CD17B6923F001
:102FAC0008037B613B68DB687A6913437B617B694F
:102FBC0023F004037B617B68134A934211D13B6974
:102FCC0023F480733B613B6923F400733B613B68E2
:102FDC005B693A6913433B613B689B693A691343EC
:102FEC003B617B683A695A607B68FA689A613B6816
:102FFC005A687B685A637B687A691A6200BF1C370F
:10300C00BD4680BC704700BF002C014080B487B027
:10301C0000AF786039607B681B6A23F010027B6814
:10302C001A627B681B6A7B617B685B683B617B68AF
:10303C009B69FB60FB6823F4E043FB60FB6823F4B3
:10304C004073FB603B681B681B02FA681343FB6010
:10305C007B6923F020037B613B689B681B017A69C9
:10306C0013437B617B681D4A93420DD17B6923F02E
:10307C0080037B613B68DB681B017A6913437B61CE
:10308C007B6923F040037B617B68144A934213D124
:10309C003B6923F480633B613B6923F400633B6130
:1030AC003B685B699B003A6913433B613B689B69D6
:1030BC009B003A6913433B617B683A695A607B68B1
:1030CC00FA689A613B685A687B689A637B687A698C
:1030DC001A6200BF1C37BD4680BC7047002C0140F3
:1030EC0080B487B000AF786039607B681B6A23F4CA
:1030FC0080727B681A627B681B6A7B617B685B6889
:10310C003B617B68DB69FB60FB6823F07003FB6051
:10311C00FB6823F00303FB603B681B68FA681343EE
:10312C00FB607B6923F400737B613B689B681B022B
:10313C007A6913437B617B681D4A93420DD17B698D
:10314C0023F400637B613B68DB681B027A691343E1
:10315C007B617B6923F480637B617B68144A9342B7
:10316C0013D13B6923F480533B613B6923F4005337
:10317C003B613B685B691B013A6913433B613B68EC
:10318C009B691B013A6913433B617B683A695A603E
:10319C007B68FA68DA613B685A687B68DA637B683B
:1031AC007A691A6200BF1C37BD4680BC704700BFED
:1031BC00002C014080B487B000AF786039607B6828
:1031CC001B6A23F480527B681A627B681B6A3B6122
:1031DC007B685B687B617B68DB69FB60FB6823F465
:1031EC00E043FB60FB6823F44073FB603B681B68A7
:1031FC001B02FA681343FB603B6923F400533B61E9
:10320C003B689B681B033A6913433B617B680F4A1D
:10321C00934209D17B6923F480437B613B685B69F2
:10322C009B017A6913437B617B687A695A607B687E
:10323C00FA68DA613B685A687B681A647B683A6999
:10324C001A6200BF1C37BD4680BC7047002C014081
:10325C0080B487B000AFF860B9607A60FB681B6A15
:10326C007B61FB681B6A23F00102FB681A62FB6836
:10327C009B693B613B6923F0F0033B617B681B015D
:10328C003A6913433B617B6923F00A037B617A69DA
:10329C00BB6813437B61FB683A699A61FB687A6986
:1032AC001A6200BF1C37BD4680BC704780B487B023
:1032BC0000AFF860B9607A60FB681B6A23F01002FB
:1032CC00FB681A62FB689B697B61FB681B6A3B614C
:1032DC007B6923F470437B617B681B037A6913431E
:1032EC007B613B6923F0A0033B61BB681B013A691E
:1032FC0013433B61FB687A699A61FB683A691A620D
:10330C0000BF1C37BD4680BC704780B485B000AF91
:10331C00786039607B689B68FB60FB6823F0700306
:10332C00FB603A68FB68134343F00703FB607B6860
:10333C00FA689A6000BF1437BD4680BC704780B4F1
:10334C0087B000AFF860B9607A603B60FB689B683F
:10335C007B617B6923F47F437B613B681A027B684A
:10336C001A43BB6813437A6913437B61FB687A6920
:10337C009A6000BF1C37BD4680BC704780B487B0D4
:10338C0000AFF860B9607A60BB6803F01F030122DC
:10339C0002FA03F37B61FB681A6A7B69DB431A4010
:1033AC00FB681A62FB681A6ABB6803F01F03796832
:1033BC0001FA03F31A43FB681A6200BF1C37BD46BF
:1033CC0080BC704780B485B000AF786039607B6892
:1033DC0093F83C30012B01D1022346E07B6801229B
:1033EC0083F83C207B68022283F83D207B681B68B5
:1033FC005B68FB607B681B689B68BB60FB6823F0A9
:10340C007003FB603B681B68FA681343FB607B68C6
:10341C001B68FA685A607B681B68164A93420ED088
:10342C007B681B68B3F1804F09D07B681B68124A1C
:10343C00934204D07B681B68104A93420CD1BB6842
:10344C0023F08003BB603B685B68BA681343BB60C6
:10345C007B681B68BA689A607B68012283F83D2000
:10346C007B68002283F83C20002318461437BD46A5
:10347C0080BC7047002C0140000400400008004054
:10348C0080B483B000AF786000BF0C37BD4680BC01
:10349C00704780B483B000AF786000BF0C37BD4676
:1034AC0080BC704780B582B000AF78607B68002B21
:1034BC0001D101233FE07B6893F83D30DBB2002B58
:1034CC0006D17B68002283F83C207868FDF7D0FC9D
:1034DC007B68242283F83D207B681B68DA687B6854
:1034EC001B6822F40052DA60786800F025FC7B68D7
:1034FC001B681A697B681B6822F490421A617B680E
:10350C001B685A697B681B6822F02A025A617B6827
:10351C001B68DA687B681B6842F40052DA607B68CF
:10352C0000221A647B68202283F83D207B682022CD
:10353C0083F83E20002318460837BD4680BD80B571
:10354C008AB002AFF860B9603B601346FB80002381
:10355C007B61FB6893F83D30DBB2202B7CD1BB68E0
:10356C00002B02D0FB88002B01D1012375E0FB68F6
:10357C0093F83C30012B01D102236EE0FB68012251
:10358C0083F83C20FB6800221A64FB68212283F834
:10359C003D20FEF791F87861FB68FA889A84FB6805
:1035AC00FA88DA84FB689B68B3F5805F08D1FB6806
:1035BC001B69002B04D10023FB61BB68BB6103E0DA
:1035CC00BB68FB610023BB61FB68002283F83C20D5
:1035DC002AE03B6800937B6900228021F86800F0A8
:1035EC0011FA0346002B01D0032336E0FB69002BB4
:1035FC000BD1BB691B881A46FB681B68C2F3080217
:10360C005A60BB690233BB6107E0FB691A78FB683F
:10361C001B685A60FB690133FB61FB68DB8C9BB256
:10362C00013B9AB2FB68DA84FB68DB8C9BB2002B03
:10363C00CFD13B6800937B6900224021F86800F0F1
:10364C00E1F90346002B01D0032306E0FB6820229E
:10365C0083F83D20002300E0022318462037BD46A6
:10366C0080BD000080B58AB000AF78607B681B68B5
:10367C001B687B627B681B68DB683B627B681B6832
:10368C005B69FB610023BB6100237B617B6A03F0F8
:10369C000F03BB61BB69002B0DD17B6A03F02003C8
:1036AC00002B08D03B6A03F02003002B03D0786872
:1036BC0000F099FA7BE1BB69002B00F0B180FB694B
:1036CC0003F00103002B05D13B6A03F49073002B2C
:1036DC0000F0A6807B6A03F00103002B0AD03B6A42
:1036EC0003F48073002B05D07B681B6C43F0010244
:1036FC007B681A647B6A03F00403002B0AD0FB6915
:10370C0003F00103002B05D07B681B6C43F0020215
:10371C007B681A647B6A03F00203002B0AD0FB69F6
:10372C0003F00103002B05D07B681B6C43F00402F3
:10373C007B681A647B6A03F00803002B0FD03B6A8A
:10374C0003F02003002B04D1FB6903F00103002BD1
:10375C0005D07B681B6C43F008027B681A647B689D
:10376C001B6C002B00F01E817B6A03F02003002BE6
:10377C0007D03B6A03F02003002B02D0786800F0DE
:10378C0032FA7B681B685B6903F04003002B14BFA3
:10379C0001230023DBB27B617B681B6C03F0080305
:1037AC00002B02D17B69002B31D0786800F074F9C2
:1037BC007B681B685B6903F04003002B23D07B689C
:1037CC001B685A697B681B6822F040025A617B684F
:1037DC009B6B002B13D07B689B6B764A5A637B6880
:1037EC009B6B1846FEF78CF80346002B16D07B68B3
:1037FC009B6B5B6B7A68926B104698470EE078680F
:10380C0000F0ECF80AE0786800F0E8F806E0786878
:10381C0000F0E4F87B6800221A64C3E000BFC1E04A
:10382C007B681B6B012B40F0A1807B6A03F01003BB
:10383C00002B00F09B803B6A03F01003002B00F080
:10384C0095800023FB607B681B681B68FB607B68B2
:10385C001B685B68FB60FB687B681B685B6903F03B
:10386C004003002B4ED07B689B6B1B685B683B82D4
:10387C003B8A002B00F098807B689B8D3A8A9A4299
:10388C0080F092807B683A8ADA857B689B6B9B69B7
:10389C00202B2BD07B681B68DA687B681B6822F4B2
:1038AC008072DA607B681B685A697B681B6822F03F
:1038BC0001025A617B681B685A697B681B6822F09D
:1038CC0040025A617B68202283F83E207B680022EC
:1038DC001A637B681B68DA687B681B6822F010022D
:1038EC00DA607B689B6B1846FDF7CFFF7B689A8D7F
:1038FC007B68DB8D9BB2D31A9BB21946786800F0BB
:10390C0076F851E07B689A8D7B68DB8D9BB2D31A7D
:10391C007B827B68DB8D9BB2002B47D07B8A002B94
:10392C0044D07B681B68DA687B681B6822F4907251
:10393C00DA607B681B685A697B681B6822F001029D
:10394C005A617B68202283F83E207B6800221A6330
:10395C007B681B68DA687B681B6822F01002DA60EF
:10396C007B8A1946786800F042F81FE07B6A03F006
:10397C008003002B08D03B6A03F08003002B03D09C
:10398C00786800F0C9F812E07B6A03F04003002B62
:10399C000DD03B6A03F04003002B08D0786800F090
:1039AC000AF904E000BF02E000BF00E000BF2837C6
:1039BC00BD4680BDFD3A000880B483B000AF78608E
:1039CC0000BF0C37BD4680BC704780B483B000AFDD
:1039DC00786000BF0C37BD4680BC704780B483B0A4
:1039EC0000AF786000BF0C37BD4680BC704780B418
:1039FC0083B000AF78600B467B8000BF0C37BD46B0
:103A0C0080BC704780B584B000AFF860B9603B6093
:103A1C001346FB712CE0BB69B3F1FF3F28D0BB69A7
:103A2C00002B07D0FDF748FE02463B68D31ABA6953
:103A3C009A421DD2FB681B68DA68FB681B6822F48B
:103A4C00D072DA60FB681B685A69FB681B6822F04D
:103A5C0001025A61FB68202283F83D20FB6820227A
:103A6C0083F83E20FB68002283F83C2003230FE000
:103A7C00FB681B681A68BB681340BA689A420CBF93
:103A8C0001230023DBB21A46FB799A42C3D00023F0
:103A9C0018461037BD4680BD80B483B000AF786047
:103AAC007B681B68DA687B681B6822F49072DA60AA
:103ABC007B681B685A697B681B6822F001025A619B
:103ACC007B681B6B012B07D17B681B68DA687B68F2
:103ADC001B6822F01002DA607B68202283F83E20FB
:103AEC007B6800221A6300BF0C37BD4680BC704750
:103AFC0080B584B000AF78607B685B6AFB60FB6864
:103B0C000022DA85FB680022DA84F868FFF766FF8A
:103B1C0000BF1037BD4680BD80B485B000AF786063
:103B2C007B6893F83D30DBB2212B3ED17B689B68E0
:103B3C00B3F5805F14D17B681B69002B10D17B68B7
:103B4C001B6AFB60FB681B881A467B681B68C2F308
:103B5C0008025A607B681B6A9A1C7B681A6208E030
:103B6C007B681B6A591C7A6811621A787B681B681F
:103B7C005A607B68DB8C9BB2013B9BB27A6819461E
:103B8C00D184002B0FD17B681B68DA687B681B68BB
:103B9C0022F08002DA607B681B68DA687B681B683D
:103BAC0042F04002DA60002300E00223184614378A
:103BBC00BD4680BC704780B582B000AF78607B6832
:103BCC001B68DA687B681B6822F04002DA607B684D
:103BDC00202283F83D207868FFF7EEFE002318467C
:103BEC000837BD4680BD80B586B000AF78607B6875
:103BFC0093F83E30DBB2222B40F099807B689B68B7
:103C0C00B3F5805F17D17B681B69002B13D10023A0
:103C1C007B617B689B6A3B617B681B685B689BB2C2
:103C2C00C3F308039AB23B691A807B689B6A9A1C9F
:103C3C007B689A6226E07B689B6A7B6100233B6110
:103C4C007B689B68B3F5805F07D07B689B68002B13
:103C5C000AD17B681B69002B06D17B681B685B68EB
:103C6C00DAB27B691A7008E07B681B685B68DBB2B0
:103C7C0003F07F03DAB27B691A707B689B6A5A1C6B
:103C8C007B689A627B68DB8D9BB2013B9BB27A6846
:103C9C001946D185002B48D17B681B68DA687B6894
:103CAC001B6822F02002DA607B681B68DA687B688C
:103CBC001B6822F48072DA607B681B685A697B6827
:103CCC001B6822F001025A617B68202283F83E2097
:103CDC007B681B6B012B23D17B6800221A637B68EA
:103CEC001B68DA687B681B6822F01002DA607B685C
:103CFC001B681B6803F01003102B0AD10023FB6018
:103D0C007B681B681B68FB607B681B685B68FB60DF
:103D1C00FB687B689B8D19467868FFF768FE02E0AC
:103D2C007868FFF752FE002302E0002300E0022334
:103D3C0018461837BD4680BD80B584B000AF78609A
:103D4C007B681B681B6923F440517B68DA687B68CD
:103D5C001B680A431A617B689A687B681B691A4363
:103D6C007B685B691343BB607B681B68DB6823F46F
:103D7C00B05323F00C037A681268B9680B43D36014
:103D8C007B681B685B6923F440717B689A697B686C
:103D9C001B680A435A617B681B682C4A934203D107
:103DAC00FEF7C0FBF86002E0FEF7A8FBF860FA68CB
:103DBC0013469B0013449A001A447B685B689B0073
:103DCC00B2FBF3F3224AA2FB03235B091901FA6845
:103DDC0013469B0013449A001A447B685B689B0053
:103DEC00B2FBF3F21A4BA3FB02035B09642000FB4A
:103DFC0003F3D31A1B013233154AA2FB03235B09CD
:103E0C0003F0F0031944FA6813469B0013449A001C
:103E1C001A447B685B689B00B2FBF3F20C4BA3FB70
:103E2C0002035B09642000FB03F3D31A1B0132333A
:103E3C00074AA2FB03235B0903F00F027B681B6894
:103E4C000A449A6000BF1037BD4680BD003801405F
:103E5C001F85EB51014B1868704700BF2C000020E8
:103E6C0070B500260C4D0D4C641BA410A64209D154
:103E7C0000F09CFC00260A4D0A4C641BA410A642C0
:103E8C0005D170BD55F8043B98470136EEE755F85F
:103E9C00043B98470136F2E73049000830490008E6
:103EAC00304900083449000803460244934200D1CB
:103EBC00704703F8011BF9E70EB46FF0004100B531
:103ECC009CB01DAB029006900791049108480949DB
:103EDC0053F8042B0591006802A9019300F068F8CF
:103EEC000022029B1A701CB05DF804EB03B0704703
:103EFC002C0000200802FFFF2DE9F0478E68824657
:103F0C009E420C4690461F4638D88A8912F4906F10
:103F1C0032D0256809690133A5EB010965694B4469
:103F2C0005EB450505EBD5756D109D4238BF1D465B
:103F3C00530531D5294600F06FFB064650B90C23CA
:103F4C004FF0FF30CAF80030A38943F04003A3813F
:103F5C00BDE8F0874A46216900F0CEFAA38923F424
:103F6C00906343F08003A38126614E4426603E4655
:103F7C006561A5EB0905A560BE4200D93E463246F7
:103F8C004146206800F0C6FAA36800209B1BA36082
:103F9C00236833442360DBE72A4600F0B1FB064676
:103FAC000028E1D15046216900F0CEFAC7E70000A5
:103FBC002DE9F04F98468B8907461B060D46144693
:103FCC009DB00ED50B6963B9402100F025FB28602C
:103FDC00286120B90C233B604FF0FF30D1E0402327
:103FEC006B610023099320238DF8293030234FF087
:103FFC000109CDF80C80DFF8A4818DF82A30234616
:10400C009A4613F8012B0AB1252AF9D1BAEB040B05
:10401C000BD05B46224629463846FFF76DFF013030
:10402C0000F0AA80099A5A4409929AF80030002BA1
:10403C0000F0A28000234FF0FF32CDE905230AF1F6
:10404C00010A049307938DF853301A9354460522B2
:10405C0014F8011B514800F041FA049AD8B9D00663
:10406C0044BF20238DF85330110744BF2B238DF808
:10407C0053309AF800302A2B15D0544600204FF0BC
:10408C000A0C079A214611F8013B303B092B4ED9FB
:10409C00B0B1079214E0A0EB080309FA03F3134341
:1040AC00A2460493D2E7039B191D1B680391002BB6
:1040BC00BBBF5B4242F0020207930793B8BF049266
:1040CC0023782E2B0CD163782A2B35D1039B023409
:1040DC001A1D1B680392002BB8BF4FF0FF330593DA
:1040EC00DFF8BCA003225046217800F0F7F940B16C
:1040FC004023A0EB0A0003FA00F0049B01340343B5
:10410C00049314F8011B062226488DF8281000F0A1
:10411C00E5F9002838D0244B1BBB039B073323F055
:10412C00070308330393099B3344099367E70C4651
:10413C0001200CFB0232A5E700234FF00A0C1946B4
:10414C0001340593204610F8012B303A092A03D983
:10415C00002BC5D00591C3E7044601230CFB0121BC
:10416C00F0E703AB00932A463846104B04A9AFF393
:10417C000080421C0646D6D1AB895B063FF52CAFBE
:10418C0009981DB0BDE8F08F03AB00932A46384662
:10419C00064B04A900F07CF8EBE700BFFC480008D4
:1041AC00024900080649000800000000053F00080D
:1041BC002DE9F047164699468A680B6907469342E3
:1041CC00B8BF1346336091F843200C46DDF82080CD
:1041DC000AB1013333602368990642BF3368023356
:1041EC003360256815F0060506D104F1190AE36859
:1041FC0032689B1AAB4228DC94F84320131E2268C9
:10420C0018BF012392062DD44946384604F14302C7
:10421C00C047013020D02368E56803F00603042B67
:10422C0018BF002532684FF00006A36808BFAD1A0E
:10423C00226908BF25EAE5759342C4BF9B1AED18A5
:10424C001A34B5421AD1002008E0012352464946DF
:10425C003846C047013003D14FF0FF30BDE8F0873E
:10426C000135C4E73020E11881F843005A1C94F85A
:10427C0045102244023382F84310C5E7012322463D
:10428C0049463846C0470130E6D00136D9E7000030
:10429C002DE9FF470F7E9146782F80460C469A46B3
:1042AC000C9D01F1430207D8622F0AD8002F00F0B1
:1042BC00D980582F00F0A48004F1420584F8427094
:1042CC003AE0A7F16303152BF6D801A151F823F0BE
:1042DC003543000849430008C5420008C5420008A0
:1042EC00C5420008C542000849430008C542000801
:1042FC00C5420008C5420008C542000857440008E2
:10430C007943000839440008C5420008C54200083A
:10431C0079440008C542000879430008C5420008EA
:10432C00C5420008414400082B681A1D1B682A600E
:10433C0004F1420584F842300123A4E02068296886
:10434C00060601F104030AD50E682B60002E03DA71
:10435C002D23764284F843300A235E4819E00E6818
:10436C0010F0400F2B6018BF36B2EFE72B682068B7
:10437C00191D2960010601D51E6802E04606FBD511
:10438C001E886F2F0CBF08230A235248002184F883
:10439C0043106568002DA8BF2168A560A4BF21F05B
:1043AC00040121600EB9002D4DD01546B6FBF3F17A
:1043BC0003FB1167C75D05F8017D3746BB420E460E
:1043CC00F4D9082B0BD12368DE0708D52369616863
:1043DC009942DEBF302305F8013C05F1FF35521B35
:1043EC0022614B4621464046CDF800A003AAFFF7B8
:1043FC00DFFE01304CD14FF0FF3004B0BDE8F08748
:10440C00344881F845702968236851F8046B296099
:10441C001D0614D5DF0744BF43F0200323601EB9EB
:10442C00236823F0200323601023AFE7236843F0B5
:10443C00200323607823284884F84530E3E75906A5
:10444C0048BFB6B2E6E71546BBE72B682668181DD1
:10445C006169286035061B6801D5196002E0700699
:10446C00FBD51980002315462361BAE72B68002180
:10447C001A1D2A601D686268284600F02FF808B1E2
:10448C00401B606063682361002384F84330A8E715
:10449C002A46494640462369D0470130ABD02368B1
:1044AC009B0713D4E068039B9842B8BF1846A4E757
:1044BC000123324649464046D04701309BD0013556
:1044CC00E36803995B1AAB42F2DCEBE7002504F1DD
:1044DC001906F5E70D4900081E490008034610B5FA
:1044EC00C9B202449342184601D1002003E004787B
:1044FC0001338C42F6D110BD0A44914200F1FF33D6
:10450C0000D1704710B511F8014B914203F8014FDF
:10451C00F9D110BD884210B501EB020402D98442D6
:10452C00234607D8431EA14208D011F8012B03F8EB
:10453C00012FF8E7014602448A4200D110BD13F85E
:10454C00014D02F8014DF7E738B50546002940D07A
:10455C0051F8043C0C1F002BB8BFE41800F010F904
:10456C001C4A136833B9636014602846BDE83840B0
:10457C0000F00CB9A34208D9206821188B4201BF66
:10458C0019685B6809182160EDE71A465B680BB186
:10459C00A342FAD911685018A0420BD120680144EB
:1045AC00501883421160E0D118685B6801441160B7
:1045BC005360DAE702D90C232B60D6E72068211868
:1045CC008B4201BF19685B680918216063605460F5
:1045DC00CBE738BDCC04002070B50E4E0C463168CC
:1045EC00054611B900F0BCF830602146284600F0B1
:1045FC00B7F8431C0AD0C41C24F00304A04207D013
:10460C00211A284600F0ACF8013001D14FF0FF34EC
:10461C00204670BDD00400202DE9F041CD1C25F0C2
:10462C00030508350C2D38BF0C25002D074601DB82
:10463C00A94205D90C2300263B603046BDE8F08129
:10464C002E4E00F09DF833681C4634BB2946384684
:10465C00FFF7C2FF431C04464DD134682646002E9A
:10466C0040D123683146384604EB030800F078F853
:10467C0080453AD1216803356D1A25F003050835BC
:10468C000C2D38BF0C2538462946FFF7A5FF013005
:10469C002BD023682B4423600EE02268521B1ED4BF
:1046AC000B2A16D96119A342256018BF596063689B
:1046BC0008BF316062514B60384604F10B0600F0C4
:1046CC0065F826F00706231DF21AB6D09B1BA350E3
:1046DC00B3E76268A3420CBF32605A60ECE7234632
:1046EC006468B2E734467668B9E70C2338463B6019
:1046FC0000F04CF8A1E72560DEE700BFCC040020F9
:10470C002DE9F041804614460E4621B91146BDE80C
:10471C00F041FFF781BF2AB9FFF716FF254628465F
:10472C00BDE8F08100F038F88442074602D8B4EBBB
:10473C00500F12D821464046FFF76EFF0546002861
:10474C00EDD0BC422246314628BF3A46FFF7D4FE94
:10475C0031464046FFF7F8FEE1E73546DFE700005B
:10476C0038B50023054D044608462B60FCF794FC35
:10477C00431C02D12B6803B1236038BDD404002044
:10478C00014800F011B800BFD8040020014800F027
:10479C000CB800BFD804002051F8043C181F002BA3
:1047AC00BCBF0B58C018704770477047F8B500BFB6
:1047BC00F8BC08BC9E467047F8B500BFF8BC08BCF6
:0447CC009E4670474E
:1047D00021425554544F4E202564230D0A000000F9
:1047E00021434845434B202564230D0A0000000067
:1047F000212564230D0A0000215045443020256402
:10480000230D0A002150454431202564230D0A0060
:104810002150454432202564230D0A00215045448F
:1048200033202564230D0A00214C4544313A20529F
:104830004544202D202564230D0A0000214C4544C9
:10484000323A20475245454E202D202564230D0A3B
:1048500000000000214C4544323A2059454C4C2080
:104860002D202564230D0A00214C4544313A204770
:104870005245454E202D202564230D0A00000000DE
:10488000214C4544323A20524544202D20256423B2
:104890000D0A0000214C4544313A2059454C4C202A
:1048A0002D202564230D0A00215245443A20256419
:1048B000230D0A0021475245454E3A202564230D19
:1048C0000A0000002159454C4C3A202564230D0A6A
:1048D0000000000002030405060708090A0B0C0D7E
:1048E0000E0F101000000000000000000102030481
:1048F000060708090000000001020304232D302BE5
:104900002000686C4C0065666745464700303132D0
:104910003334353637383941424344454600303127
:104920003233343536373839616263646566000086
:044930003101000849
:044934000D01000869
:10493800BC0200002C010000BC0200002C01000099
:10494800E80300002C010000BC020000BC020000CB
:104958000024F400100000000100000030000020D6
:10496800000000000000000000000000000000003F
:10497800000000000000000000000000000000002F
:10498800000000000000000000000000000000001F
:10499800000000000000000000000000000000000F
:1049A80000000000000000000000000000000000FF
:1049B80000000000000000000000000000000000EF
:0400000508001629B0
:00000001FF
